{
  "_format": "hh-sol-artifact-1",
  "contractName": "Pausable",
  "sourceName": "contracts/Pausable.sol",
  "abi": [
    {
      "anonymous": false,
      "inputs": [
        {
          "indexed": true,
          "internalType": "address",
          "name": "previousOwner",
          "type": "address"
        },
        {
          "indexed": true,
          "internalType": "address",
          "name": "newOwner",
          "type": "address"
        }
      ],
      "name": "OwnershipTransferred",
      "type": "event"
    },
    {
      "anonymous": false,
      "inputs": [
        {
          "indexed": false,
          "internalType": "address",
          "name": "by",
          "type": "address"
        },
        {
          "indexed": true,
          "internalType": "uint256",
          "name": "when",
          "type": "uint256"
        }
      ],
      "name": "Start",
      "type": "event"
    },
    {
      "anonymous": false,
      "inputs": [
        {
          "indexed": false,
          "internalType": "address",
          "name": "by",
          "type": "address"
        },
        {
          "indexed": true,
          "internalType": "uint256",
          "name": "when",
          "type": "uint256"
        }
      ],
      "name": "Stop",
      "type": "event"
    },
    {
      "inputs": [],
      "name": "isPaused",
      "outputs": [
        {
          "internalType": "bool",
          "name": "",
          "type": "bool"
        }
      ],
      "stateMutability": "view",
      "type": "function"
    },
    {
      "inputs": [],
      "name": "owner",
      "outputs": [
        {
          "internalType": "address",
          "name": "",
          "type": "address"
        }
      ],
      "stateMutability": "view",
      "type": "function"
    },
    {
      "inputs": [],
      "name": "pause",
      "outputs": [],
      "stateMutability": "nonpayable",
      "type": "function"
    },
    {
      "inputs": [],
      "name": "renounceOwnership",
      "outputs": [],
      "stateMutability": "nonpayable",
      "type": "function"
    },
    {
      "inputs": [
        {
          "internalType": "address",
          "name": "newOwner",
          "type": "address"
        }
      ],
      "name": "transferOwnership",
      "outputs": [],
      "stateMutability": "nonpayable",
      "type": "function"
    },
    {
      "inputs": [],
      "name": "unpause",
      "outputs": [],
      "stateMutability": "nonpayable",
      "type": "function"
    }
  ],
  "bytecode": "0x608060405234801561001057600080fd5b5061002d61002261003260201b60201c565b61003a60201b60201c565b6100fe565b600033905090565b60008060009054906101000a900473ffffffffffffffffffffffffffffffffffffffff169050816000806101000a81548173ffffffffffffffffffffffffffffffffffffffff021916908373ffffffffffffffffffffffffffffffffffffffff1602179055508173ffffffffffffffffffffffffffffffffffffffff168173ffffffffffffffffffffffffffffffffffffffff167f8be0079c531659141344cd1fd0a4f28419497f9722a3daafe3b4186f6b6457e060405160405180910390a35050565b6107bc8061010d6000396000f3fe608060405234801561001057600080fd5b50600436106100625760003560e01c80633f4ba83a14610067578063715018a6146100715780638456cb591461007b5780638da5cb5b14610085578063b187bd26146100a3578063f2fde38b146100c1575b600080fd5b61006f6100dd565b005b61007961018f565b005b6100836101a3565b005b61008d610256565b60405161009a91906104a4565b60405180910390f35b6100ab61027f565b6040516100b891906104da565b60405180910390f35b6100db60048036038101906100d69190610526565b610295565b005b6100e5610319565b60011515600060149054906101000a900460ff1615151461013b576040517f08c379a0000000000000000000000000000000000000000000000000000000008152600401610132906105d6565b60405180910390fd5b60008060146101000a81548160ff021916908315150217905550427fcfb9c5312b25ec7b809d61e638df25f749eae5d5c25399e1c93d1d319bfd58213360405161018591906104a4565b60405180910390a2565b610197610319565b6101a16000610397565b565b6101ab610319565b60001515600060149054906101000a900460ff16151514610201576040517f08c379a00000000000000000000000000000000000000000000000000000000081526004016101f890610668565b60405180910390fd5b6001600060146101000a81548160ff021916908315150217905550427f445ea36761b6ad845347c31a7b091cda3228ea32afc0cb1e812a7bb803f7f52e3360405161024c91906104a4565b60405180910390a2565b60008060009054906101000a900473ffffffffffffffffffffffffffffffffffffffff16905090565b60008060149054906101000a900460ff16905090565b61029d610319565b600073ffffffffffffffffffffffffffffffffffffffff168173ffffffffffffffffffffffffffffffffffffffff16141561030d576040517f08c379a0000000000000000000000000000000000000000000000000000000008152600401610304906106fa565b60405180910390fd5b61031681610397565b50565b61032161045b565b73ffffffffffffffffffffffffffffffffffffffff1661033f610256565b73ffffffffffffffffffffffffffffffffffffffff1614610395576040517f08c379a000000000000000000000000000000000000000000000000000000000815260040161038c90610766565b60405180910390fd5b565b60008060009054906101000a900473ffffffffffffffffffffffffffffffffffffffff169050816000806101000a81548173ffffffffffffffffffffffffffffffffffffffff021916908373ffffffffffffffffffffffffffffffffffffffff1602179055508173ffffffffffffffffffffffffffffffffffffffff168173ffffffffffffffffffffffffffffffffffffffff167f8be0079c531659141344cd1fd0a4f28419497f9722a3daafe3b4186f6b6457e060405160405180910390a35050565b600033905090565b600073ffffffffffffffffffffffffffffffffffffffff82169050919050565b600061048e82610463565b9050919050565b61049e81610483565b82525050565b60006020820190506104b96000830184610495565b92915050565b60008115159050919050565b6104d4816104bf565b82525050565b60006020820190506104ef60008301846104cb565b92915050565b600080fd5b61050381610483565b811461050e57600080fd5b50565b600081359050610520816104fa565b92915050565b60006020828403121561053c5761053b6104f5565b5b600061054a84828501610511565b91505092915050565b600082825260208201905092915050565b7f5061757361626c653a20436f6e747261637420697320756e706175736564206160008201527f6c72656164792e00000000000000000000000000000000000000000000000000602082015250565b60006105c0602783610553565b91506105cb82610564565b604082019050919050565b600060208201905081810360008301526105ef816105b3565b9050919050565b7f5061757361626c653a20436f6e74726163742069732070617573656420616c7260008201527f656164792e000000000000000000000000000000000000000000000000000000602082015250565b6000610652602583610553565b915061065d826105f6565b604082019050919050565b6000602082019050818103600083015261068181610645565b9050919050565b7f4f776e61626c653a206e6577206f776e657220697320746865207a65726f206160008201527f6464726573730000000000000000000000000000000000000000000000000000602082015250565b60006106e4602683610553565b91506106ef82610688565b604082019050919050565b60006020820190508181036000830152610713816106d7565b9050919050565b7f4f776e61626c653a2063616c6c6572206973206e6f7420746865206f776e6572600082015250565b6000610750602083610553565b915061075b8261071a565b602082019050919050565b6000602082019050818103600083015261077f81610743565b905091905056fea26469706673582212205374a5b5820d247f827db70be067461d0d8c763450facfa6c9f4316db8af43c464736f6c63430008090033",
  "linkReferences": {},
  "deployedLinkReferences": {}
}