{
  "_format": "hh-sol-artifact-1",
  "contractName": "Ico",
  "sourceName": "contracts/Ico.sol",
  "abi": [
    {
      "inputs": [
        {
          "internalType": "contract ERC20",
          "name": "_token",
          "type": "address"
        },
        {
          "internalType": "uint8",
          "name": "_maxWhitelistedAddresses",
          "type": "uint8"
        }
      ],
      "stateMutability": "nonpayable",
      "type": "constructor"
    },
    {
      "inputs": [],
      "name": "addAddressToWhitelist",
      "outputs": [],
      "stateMutability": "nonpayable",
      "type": "function"
    },
    {
      "inputs": [],
      "name": "num",
      "outputs": [
        {
          "internalType": "uint256",
          "name": "",
          "type": "uint256"
        }
      ],
      "stateMutability": "view",
      "type": "function"
    }
  ],
  "bytecode": "0x60a060405234801561001057600080fd5b5060405161059c38038061059c83398181016040528101906100329190610136565b8173ffffffffffffffffffffffffffffffffffffffff1660808173ffffffffffffffffffffffffffffffffffffffff168152505080600060016101000a81548160ff021916908360ff1602179055505050610176565b600080fd5b600073ffffffffffffffffffffffffffffffffffffffff82169050919050565b60006100b88261008d565b9050919050565b60006100ca826100ad565b9050919050565b6100da816100bf565b81146100e557600080fd5b50565b6000815190506100f7816100d1565b92915050565b600060ff82169050919050565b610113816100fd565b811461011e57600080fd5b50565b6000815190506101308161010a565b92915050565b6000806040838503121561014d5761014c610088565b5b600061015b858286016100e8565b925050602061016c85828601610121565b9150509250929050565b60805161040e61018e6000396000505061040e6000f3fe608060405234801561001057600080fd5b50600436106100365760003560e01c80634e70b1dc1461003b5780638e7314d914610059575b600080fd5b610043610063565b6040516100509190610215565b60405180910390f35b61006161007c565b005b60008060009054906101000a900460ff1660ff16905090565b600160003373ffffffffffffffffffffffffffffffffffffffff1673ffffffffffffffffffffffffffffffffffffffff16815260200190815260200160002060009054906101000a900460ff1615610109576040517f08c379a0000000000000000000000000000000000000000000000000000000008152600401610100906102b3565b60405180910390fd5b600060019054906101000a900460ff1660ff1660008054906101000a900460ff1660ff161061016d576040517f08c379a000000000000000000000000000000000000000000000000000000000815260040161016490610345565b60405180910390fd5b60018060003373ffffffffffffffffffffffffffffffffffffffff1673ffffffffffffffffffffffffffffffffffffffff16815260200190815260200160002060006101000a81548160ff02191690831515021790555060016000808282829054906101000a900460ff166101e291906103a1565b92506101000a81548160ff021916908360ff160217905550565b6000819050919050565b61020f816101fc565b82525050565b600060208201905061022a6000830184610206565b92915050565b600082825260208201905092915050565b7f53656e6465722068617320616c7265616479206265656e2077686974656c697360008201527f7465640000000000000000000000000000000000000000000000000000000000602082015250565b600061029d602383610230565b91506102a882610241565b604082019050919050565b600060208201905081810360008301526102cc81610290565b9050919050565b7f4d6f7265206164647265737365732063616e742062652061646465642c206c6960008201527f6d69742072656163686564000000000000000000000000000000000000000000602082015250565b600061032f602b83610230565b915061033a826102d3565b604082019050919050565b6000602082019050818103600083015261035e81610322565b9050919050565b600060ff82169050919050565b7f4e487b7100000000000000000000000000000000000000000000000000000000600052601160045260246000fd5b60006103ac82610365565b91506103b783610365565b92508260ff038211156103cd576103cc610372565b5b82820190509291505056fea2646970667358221220d70f72a76e642291d62fc51f5ba10483ca2e63ffbc434f7b8dfe96cce489819764736f6c63430008090033",
  "linkReferences": {},
  "deployedLinkReferences": {}
}