{
  "_format": "hh-sol-artifact-1",
  "contractName": "Ico",
  "sourceName": "contracts/Ico.sol",
  "abi": [
    {
      "inputs": [
        {
          "internalType": "contract ERC20",
          "name": "_token",
          "type": "address"
        },
        {
          "internalType": "uint256",
          "name": "_cap",
          "type": "uint256"
        },
        {
          "internalType": "contract Whitelist",
          "name": "_kyc",
          "type": "address"
        },
        {
          "internalType": "uint256",
          "name": "_openingTime",
          "type": "uint256"
        },
        {
          "internalType": "uint256",
          "name": "_closingTime",
          "type": "uint256"
        }
      ],
      "stateMutability": "nonpayable",
      "type": "constructor"
    },
    {
      "anonymous": false,
      "inputs": [
        {
          "indexed": true,
          "internalType": "address",
          "name": "owner",
          "type": "address"
        },
        {
          "indexed": true,
          "internalType": "address",
          "name": "spender",
          "type": "address"
        },
        {
          "indexed": false,
          "internalType": "uint256",
          "name": "value",
          "type": "uint256"
        }
      ],
      "name": "Approval",
      "type": "event"
    },
    {
      "anonymous": false,
      "inputs": [
        {
          "indexed": false,
          "internalType": "uint256",
          "name": "when",
          "type": "uint256"
        },
        {
          "indexed": false,
          "internalType": "uint256",
          "name": "newRate",
          "type": "uint256"
        }
      ],
      "name": "RateChanged",
      "type": "event"
    },
    {
      "anonymous": false,
      "inputs": [
        {
          "indexed": false,
          "internalType": "address",
          "name": "who",
          "type": "address"
        },
        {
          "indexed": false,
          "internalType": "uint256",
          "name": "amount",
          "type": "uint256"
        }
      ],
      "name": "TokensPurchased",
      "type": "event"
    },
    {
      "anonymous": false,
      "inputs": [
        {
          "indexed": true,
          "internalType": "address",
          "name": "from",
          "type": "address"
        },
        {
          "indexed": true,
          "internalType": "address",
          "name": "to",
          "type": "address"
        },
        {
          "indexed": false,
          "internalType": "uint256",
          "name": "value",
          "type": "uint256"
        }
      ],
      "name": "Transfer",
      "type": "event"
    },
    {
      "inputs": [],
      "name": "_ERC20token",
      "outputs": [
        {
          "internalType": "contract ERC20",
          "name": "",
          "type": "address"
        }
      ],
      "stateMutability": "view",
      "type": "function"
    },
    {
      "inputs": [],
      "name": "_KYC",
      "outputs": [
        {
          "internalType": "contract Whitelist",
          "name": "",
          "type": "address"
        }
      ],
      "stateMutability": "view",
      "type": "function"
    },
    {
      "inputs": [
        {
          "internalType": "address",
          "name": "owner",
          "type": "address"
        },
        {
          "internalType": "address",
          "name": "spender",
          "type": "address"
        }
      ],
      "name": "allowance",
      "outputs": [
        {
          "internalType": "uint256",
          "name": "",
          "type": "uint256"
        }
      ],
      "stateMutability": "view",
      "type": "function"
    },
    {
      "inputs": [
        {
          "internalType": "address",
          "name": "spender",
          "type": "address"
        },
        {
          "internalType": "uint256",
          "name": "amount",
          "type": "uint256"
        }
      ],
      "name": "approve",
      "outputs": [
        {
          "internalType": "bool",
          "name": "",
          "type": "bool"
        }
      ],
      "stateMutability": "nonpayable",
      "type": "function"
    },
    {
      "inputs": [
        {
          "internalType": "address",
          "name": "account",
          "type": "address"
        }
      ],
      "name": "balanceOf",
      "outputs": [
        {
          "internalType": "uint256",
          "name": "",
          "type": "uint256"
        }
      ],
      "stateMutability": "view",
      "type": "function"
    },
    {
      "inputs": [],
      "name": "cap",
      "outputs": [
        {
          "internalType": "uint256",
          "name": "",
          "type": "uint256"
        }
      ],
      "stateMutability": "view",
      "type": "function"
    },
    {
      "inputs": [],
      "name": "closingTime",
      "outputs": [
        {
          "internalType": "uint256",
          "name": "",
          "type": "uint256"
        }
      ],
      "stateMutability": "view",
      "type": "function"
    },
    {
      "inputs": [
        {
          "internalType": "address",
          "name": "_who",
          "type": "address"
        }
      ],
      "name": "contribution",
      "outputs": [
        {
          "internalType": "uint256",
          "name": "",
          "type": "uint256"
        }
      ],
      "stateMutability": "view",
      "type": "function"
    },
    {
      "inputs": [
        {
          "internalType": "address",
          "name": "",
          "type": "address"
        }
      ],
      "name": "contributions",
      "outputs": [
        {
          "internalType": "uint256",
          "name": "",
          "type": "uint256"
        }
      ],
      "stateMutability": "view",
      "type": "function"
    },
    {
      "inputs": [],
      "name": "decimals",
      "outputs": [
        {
          "internalType": "uint8",
          "name": "",
          "type": "uint8"
        }
      ],
      "stateMutability": "view",
      "type": "function"
    },
    {
      "inputs": [
        {
          "internalType": "address",
          "name": "spender",
          "type": "address"
        },
        {
          "internalType": "uint256",
          "name": "subtractedValue",
          "type": "uint256"
        }
      ],
      "name": "decreaseAllowance",
      "outputs": [
        {
          "internalType": "bool",
          "name": "",
          "type": "bool"
        }
      ],
      "stateMutability": "nonpayable",
      "type": "function"
    },
    {
      "inputs": [],
      "name": "getrate",
      "outputs": [
        {
          "internalType": "uint256",
          "name": "",
          "type": "uint256"
        }
      ],
      "stateMutability": "view",
      "type": "function"
    },
    {
      "inputs": [
        {
          "internalType": "address",
          "name": "spender",
          "type": "address"
        },
        {
          "internalType": "uint256",
          "name": "addedValue",
          "type": "uint256"
        }
      ],
      "name": "increaseAllowance",
      "outputs": [
        {
          "internalType": "bool",
          "name": "",
          "type": "bool"
        }
      ],
      "stateMutability": "nonpayable",
      "type": "function"
    },
    {
      "inputs": [],
      "name": "investorHardCap",
      "outputs": [
        {
          "internalType": "uint256",
          "name": "",
          "type": "uint256"
        }
      ],
      "stateMutability": "view",
      "type": "function"
    },
    {
      "inputs": [],
      "name": "investorMinCap",
      "outputs": [
        {
          "internalType": "uint256",
          "name": "",
          "type": "uint256"
        }
      ],
      "stateMutability": "view",
      "type": "function"
    },
    {
      "inputs": [],
      "name": "name",
      "outputs": [
        {
          "internalType": "string",
          "name": "",
          "type": "string"
        }
      ],
      "stateMutability": "view",
      "type": "function"
    },
    {
      "inputs": [],
      "name": "openingTime",
      "outputs": [
        {
          "internalType": "uint256",
          "name": "",
          "type": "uint256"
        }
      ],
      "stateMutability": "view",
      "type": "function"
    },
    {
      "inputs": [],
      "name": "rate",
      "outputs": [
        {
          "internalType": "uint256",
          "name": "",
          "type": "uint256"
        }
      ],
      "stateMutability": "view",
      "type": "function"
    },
    {
      "inputs": [
        {
          "internalType": "uint8",
          "name": "_stage",
          "type": "uint8"
        }
      ],
      "name": "setCrowdsaleStage",
      "outputs": [],
      "stateMutability": "nonpayable",
      "type": "function"
    },
    {
      "inputs": [],
      "name": "stage",
      "outputs": [
        {
          "internalType": "enum Ico.CrowdsaleStage",
          "name": "",
          "type": "uint8"
        }
      ],
      "stateMutability": "view",
      "type": "function"
    },
    {
      "inputs": [],
      "name": "symbol",
      "outputs": [
        {
          "internalType": "string",
          "name": "",
          "type": "string"
        }
      ],
      "stateMutability": "view",
      "type": "function"
    },
    {
      "inputs": [],
      "name": "totalSupply",
      "outputs": [
        {
          "internalType": "uint256",
          "name": "",
          "type": "uint256"
        }
      ],
      "stateMutability": "view",
      "type": "function"
    },
    {
      "inputs": [
        {
          "internalType": "address",
          "name": "to",
          "type": "address"
        },
        {
          "internalType": "uint256",
          "name": "amount",
          "type": "uint256"
        }
      ],
      "name": "transfer",
      "outputs": [
        {
          "internalType": "bool",
          "name": "",
          "type": "bool"
        }
      ],
      "stateMutability": "nonpayable",
      "type": "function"
    },
    {
      "inputs": [
        {
          "internalType": "address",
          "name": "from",
          "type": "address"
        },
        {
          "internalType": "address",
          "name": "to",
          "type": "address"
        },
        {
          "internalType": "uint256",
          "name": "amount",
          "type": "uint256"
        }
      ],
      "name": "transferFrom",
      "outputs": [
        {
          "internalType": "bool",
          "name": "",
          "type": "bool"
        }
      ],
      "stateMutability": "nonpayable",
      "type": "function"
    },
    {
      "inputs": [
        {
          "internalType": "address",
          "name": "_beneficiary",
          "type": "address"
        },
        {
          "internalType": "uint256",
          "name": "_weiAmount",
          "type": "uint256"
        }
      ],
      "name": "validat",
      "outputs": [],
      "stateMutability": "nonpayable",
      "type": "function"
    }
  ],
  "bytecode": "0x60a06040526000600660146101000a81548160ff021916908360018111156200002d576200002c6200036e565b5b0217905550600560075560026008556101f46009553480156200004f57600080fd5b5060405162002a7738038062002a778339818101604052810190620000759190620004aa565b838573ffffffffffffffffffffffffffffffffffffffff166306fdde036040518163ffffffff1660e01b815260040160006040518083038186803b158015620000bd57600080fd5b505afa158015620000d2573d6000803e3d6000fd5b505050506040513d6000823e3d601f19601f82011682018060405250810190620000fd9190620006bb565b8673ffffffffffffffffffffffffffffffffffffffff166395d89b416040518163ffffffff1660e01b815260040160006040518083038186803b1580156200014457600080fd5b505afa15801562000159573d6000803e3d6000fd5b505050506040513d6000823e3d601f19601f82011682018060405250810190620001849190620006bb565b81600390805190602001906200019c929190620002be565b508060049080519060200190620001b5929190620002be565b50505060008111620001fe576040517f08c379a0000000000000000000000000000000000000000000000000000000008152600401620001f5906200076d565b60405180910390fd5b80608081815250505084600560006101000a81548173ffffffffffffffffffffffffffffffffffffffff021916908373ffffffffffffffffffffffffffffffffffffffff16021790555082600660006101000a81548173ffffffffffffffffffffffffffffffffffffffff021916908373ffffffffffffffffffffffffffffffffffffffff160217905550428210156200029757600080fd5b81811015620002a557600080fd5b81600b8190555080600c819055505050505050620007f4565b828054620002cc90620007be565b90600052602060002090601f016020900481019282620002f057600085556200033c565b82601f106200030b57805160ff19168380011785556200033c565b828001600101855582156200033c579182015b828111156200033b5782518255916020019190600101906200031e565b5b5090506200034b91906200034f565b5090565b5b808211156200036a57600081600090555060010162000350565b5090565b7f4e487b7100000000000000000000000000000000000000000000000000000000600052602160045260246000fd5b6000604051905090565b600080fd5b600080fd5b600073ffffffffffffffffffffffffffffffffffffffff82169050919050565b6000620003de82620003b1565b9050919050565b6000620003f282620003d1565b9050919050565b6200040481620003e5565b81146200041057600080fd5b50565b6000815190506200042481620003f9565b92915050565b6000819050919050565b6200043f816200042a565b81146200044b57600080fd5b50565b6000815190506200045f8162000434565b92915050565b60006200047282620003d1565b9050919050565b620004848162000465565b81146200049057600080fd5b50565b600081519050620004a48162000479565b92915050565b600080600080600060a08688031215620004c957620004c8620003a7565b5b6000620004d98882890162000413565b9550506020620004ec888289016200044e565b9450506040620004ff8882890162000493565b935050606062000512888289016200044e565b925050608062000525888289016200044e565b9150509295509295909350565b600080fd5b600080fd5b6000601f19601f8301169050919050565b7f4e487b7100000000000000000000000000000000000000000000000000000000600052604160045260246000fd5b62000587826200053c565b810181811067ffffffffffffffff82111715620005a957620005a86200054d565b5b80604052505050565b6000620005be6200039d565b9050620005cc82826200057c565b919050565b600067ffffffffffffffff821115620005ef57620005ee6200054d565b5b620005fa826200053c565b9050602081019050919050565b60005b83811015620006275780820151818401526020810190506200060a565b8381111562000637576000848401525b50505050565b6000620006546200064e84620005d1565b620005b2565b90508281526020810184848401111562000673576200067262000537565b5b6200068084828562000607565b509392505050565b600082601f830112620006a0576200069f62000532565b5b8151620006b28482602086016200063d565b91505092915050565b600060208284031215620006d457620006d3620003a7565b5b600082015167ffffffffffffffff811115620006f557620006f4620003ac565b5b620007038482850162000688565b91505092915050565b600082825260208201905092915050565b7f45524332304361707065643a2063617020697320300000000000000000000000600082015250565b6000620007556015836200070c565b915062000762826200071d565b602082019050919050565b60006020820190508181036000830152620007888162000746565b9050919050565b7f4e487b7100000000000000000000000000000000000000000000000000000000600052602260045260246000fd5b60006002820490506001821680620007d757607f821691505b60208210811415620007ee57620007ed6200078f565b5b50919050565b6080516122676200081060003960006108f101526122676000f3fe608060405234801561001057600080fd5b50600436106101735760003560e01c806370a08231116100de578063c040e6b811610097578063dd62ed3e11610071578063dd62ed3e14610468578063e2dc431014610498578063ed5db874146104c8578063fe60b31e146104e657610173565b8063c040e6b814610410578063c3ffc1d11461042e578063d1ed83381461044c57610173565b806370a082311461032657806395d89b4114610356578063a457c2d714610374578063a9059cbb146103a4578063b25d7f54146103d4578063b7a8807c146103f257610173565b8063313ce56711610130578063313ce5671461024e578063355274ea1461026c578063395093511461028a57806342e94c90146102ba5780634b6753bc146102ea578063520d3f0d1461030857610173565b806306fdde0314610178578063095ea7b31461019657806318160ddd146101c657806318b35680146101e457806323b872dd146102005780632c4e722e14610230575b600080fd5b610180610504565b60405161018d91906115a3565b60405180910390f35b6101b060048036038101906101ab919061165e565b610596565b6040516101bd91906116b9565b60405180910390f35b6101ce6105b9565b6040516101db91906116e3565b60405180910390f35b6101fe60048036038101906101f9919061165e565b6105c3565b005b61021a600480360381019061021591906116fe565b6108af565b60405161022791906116b9565b60405180910390f35b6102386108de565b60405161024591906116e3565b60405180910390f35b6102566108e4565b604051610263919061176d565b60405180910390f35b6102746108ed565b60405161028191906116e3565b60405180910390f35b6102a4600480360381019061029f919061165e565b610915565b6040516102b191906116b9565b60405180910390f35b6102d460048036038101906102cf9190611788565b61094c565b6040516102e191906116e3565b60405180910390f35b6102f2610964565b6040516102ff91906116e3565b60405180910390f35b61031061096a565b60405161031d91906116e3565b60405180910390f35b610340600480360381019061033b9190611788565b610974565b60405161034d91906116e3565b60405180910390f35b61035e6109bc565b60405161036b91906115a3565b60405180910390f35b61038e6004803603810190610389919061165e565b610a4e565b60405161039b91906116b9565b60405180910390f35b6103be60048036038101906103b9919061165e565b610ac5565b6040516103cb91906116b9565b60405180910390f35b6103dc610ae8565b6040516103e991906116e3565b60405180910390f35b6103fa610aee565b60405161040791906116e3565b60405180910390f35b610418610af4565b604051610425919061182c565b60405180910390f35b610436610b07565b60405161044391906118a6565b60405180910390f35b610466600480360381019061046191906118ed565b610b2d565b005b610482600480360381019061047d919061191a565b610c98565b60405161048f91906116e3565b60405180910390f35b6104b260048036038101906104ad9190611788565b610d1f565b6040516104bf91906116e3565b60405180910390f35b6104d0610d68565b6040516104dd91906116e3565b60405180910390f35b6104ee610d6e565b6040516104fb919061197b565b60405180910390f35b606060038054610513906119c5565b80601f016020809104026020016040519081016040528092919081815260200182805461053f906119c5565b801561058c5780601f106105615761010080835404028352916020019161058c565b820191906000526020600020905b81548152906001019060200180831161056f57829003601f168201915b5050505050905090565b6000806105a1610d94565b90506105ae818585610d9c565b600191505092915050565b6000600254905090565b6000811415610607576040517f08c379a00000000000000000000000000000000000000000000000000000000081526004016105fe90611a43565b60405180910390fd5b6104b0426106159190611a92565b600b54108015610626575042600c54115b610665576040517f08c379a000000000000000000000000000000000000000000000000000000000815260040161065c90611b34565b60405180910390fd5b600660009054906101000a900473ffffffffffffffffffffffffffffffffffffffff1673ffffffffffffffffffffffffffffffffffffffff1663babcc539836040518263ffffffff1660e01b81526004016106c09190611b63565b60206040518083038186803b1580156106d857600080fd5b505afa1580156106ec573d6000803e3d6000fd5b505050506040513d601f19601f820116820180604052508101906107109190611baa565b61074f576040517f08c379a000000000000000000000000000000000000000000000000000000000815260040161074690611c49565b60405180910390fd5b6000600a60008473ffffffffffffffffffffffffffffffffffffffff1673ffffffffffffffffffffffffffffffffffffffff168152602001908152602001600020549050600082826107a19190611a92565b905060085481101580156107b757506009548111155b6107f6576040517f08c379a00000000000000000000000000000000000000000000000000000000081526004016107ed90611cb5565b60405180910390fd5b80600a60008673ffffffffffffffffffffffffffffffffffffffff1673ffffffffffffffffffffffffffffffffffffffff1681526020019081526020016000208190555061084381610f67565b610859600754846108549190611cd5565b610f67565b610870846007548561086b9190611cd5565b611000565b7f8f28852646c20cc973d3a8218f7eefed58c25c909f78f0265af4818c3d4dc27184826040516108a1929190611d2f565b60405180910390a150505050565b6000806108ba610d94565b90506108c785828561106a565b6108d28585856110f6565b60019150509392505050565b60075481565b60006012905090565b60007f0000000000000000000000000000000000000000000000000000000000000000905090565b600080610920610d94565b90506109418185856109328589610c98565b61093c9190611a92565b610d9c565b600191505092915050565b600a6020528060005260406000206000915090505481565b600c5481565b6000600754905090565b60008060008373ffffffffffffffffffffffffffffffffffffffff1673ffffffffffffffffffffffffffffffffffffffff168152602001908152602001600020549050919050565b6060600480546109cb906119c5565b80601f01602080910402602001604051908101604052809291908181526020018280546109f7906119c5565b8015610a445780601f10610a1957610100808354040283529160200191610a44565b820191906000526020600020905b815481529060010190602001808311610a2757829003601f168201915b5050505050905090565b600080610a59610d94565b90506000610a678286610c98565b905083811015610aac576040517f08c379a0000000000000000000000000000000000000000000000000000000008152600401610aa390611dca565b60405180910390fd5b610ab98286868403610d9c565b60019250505092915050565b600080610ad0610d94565b9050610add8185856110f6565b600191505092915050565b60085481565b600b5481565b600660149054906101000a900460ff1681565b600560009054906101000a900473ffffffffffffffffffffffffffffffffffffffff1681565b8060ff1660006001811115610b4557610b446117b5565b5b60ff161415610b7e576000600660146101000a81548160ff02191690836001811115610b7457610b736117b5565b5b0217905550610bcb565b8060ff16600180811115610b9557610b946117b5565b5b60ff161415610bca576001600660146101000a81548160ff02191690836001811115610bc457610bc36117b5565b5b02179055505b5b60006001811115610bdf57610bde6117b5565b5b600660149054906101000a900460ff166001811115610c0157610c006117b5565b5b1415610c15576101f4600781905550610c5a565b600180811115610c2857610c276117b5565b5b600660149054906101000a900460ff166001811115610c4a57610c496117b5565b5b1415610c595760fa6007819055505b5b7f4ac9052a820bf4f8c02d7588587cae835573b5b99ea7ad4ca002f17f319f718642600754604051610c8d929190611dea565b60405180910390a150565b6000600160008473ffffffffffffffffffffffffffffffffffffffff1673ffffffffffffffffffffffffffffffffffffffff16815260200190815260200160002060008373ffffffffffffffffffffffffffffffffffffffff1673ffffffffffffffffffffffffffffffffffffffff16815260200190815260200160002054905092915050565b6000600a60008373ffffffffffffffffffffffffffffffffffffffff1673ffffffffffffffffffffffffffffffffffffffff168152602001908152602001600020549050919050565b60095481565b600660009054906101000a900473ffffffffffffffffffffffffffffffffffffffff1681565b600033905090565b600073ffffffffffffffffffffffffffffffffffffffff168373ffffffffffffffffffffffffffffffffffffffff161415610e0c576040517f08c379a0000000000000000000000000000000000000000000000000000000008152600401610e0390611e85565b60405180910390fd5b600073ffffffffffffffffffffffffffffffffffffffff168273ffffffffffffffffffffffffffffffffffffffff161415610e7c576040517f08c379a0000000000000000000000000000000000000000000000000000000008152600401610e7390611f17565b60405180910390fd5b80600160008573ffffffffffffffffffffffffffffffffffffffff1673ffffffffffffffffffffffffffffffffffffffff16815260200190815260200160002060008473ffffffffffffffffffffffffffffffffffffffff1673ffffffffffffffffffffffffffffffffffffffff168152602001908152602001600020819055508173ffffffffffffffffffffffffffffffffffffffff168373ffffffffffffffffffffffffffffffffffffffff167f8c5be1e5ebec7d5bd14f71427d1e84f3dd0314c0f7b2291e5b200ac8c7c3b92583604051610f5a91906116e3565b60405180910390a3505050565b610ffd81604051602401610f7b91906116e3565b6040516020818303038152906040527ff82c50f1000000000000000000000000000000000000000000000000000000007bffffffffffffffffffffffffffffffffffffffffffffffffffffffff19166020820180517bffffffffffffffffffffffffffffffffffffffffffffffffffffffff8381831617835250505050611377565b50565b6110086108ed565b816110116105b9565b61101b9190611a92565b111561105c576040517f08c379a000000000000000000000000000000000000000000000000000000000815260040161105390611f83565b60405180910390fd5b61106682826113a0565b5050565b60006110768484610c98565b90507fffffffffffffffffffffffffffffffffffffffffffffffffffffffffffffffff81146110f057818110156110e2576040517f08c379a00000000000000000000000000000000000000000000000000000000081526004016110d990611fef565b60405180910390fd5b6110ef8484848403610d9c565b5b50505050565b600073ffffffffffffffffffffffffffffffffffffffff168373ffffffffffffffffffffffffffffffffffffffff161415611166576040517f08c379a000000000000000000000000000000000000000000000000000000000815260040161115d90612081565b60405180910390fd5b600073ffffffffffffffffffffffffffffffffffffffff168273ffffffffffffffffffffffffffffffffffffffff1614156111d6576040517f08c379a00000000000000000000000000000000000000000000000000000000081526004016111cd90612113565b60405180910390fd5b6111e1838383611500565b60008060008573ffffffffffffffffffffffffffffffffffffffff1673ffffffffffffffffffffffffffffffffffffffff16815260200190815260200160002054905081811015611267576040517f08c379a000000000000000000000000000000000000000000000000000000000815260040161125e906121a5565b60405180910390fd5b8181036000808673ffffffffffffffffffffffffffffffffffffffff1673ffffffffffffffffffffffffffffffffffffffff16815260200190815260200160002081905550816000808573ffffffffffffffffffffffffffffffffffffffff1673ffffffffffffffffffffffffffffffffffffffff16815260200190815260200160002060008282546112fa9190611a92565b925050819055508273ffffffffffffffffffffffffffffffffffffffff168473ffffffffffffffffffffffffffffffffffffffff167fddf252ad1be2c89b69c2b068fc378daa952ba7f163c4a11628f55a4df523b3ef8460405161135e91906116e3565b60405180910390a3611371848484611505565b50505050565b60008151905060006a636f6e736f6c652e6c6f679050602083016000808483855afa5050505050565b600073ffffffffffffffffffffffffffffffffffffffff168273ffffffffffffffffffffffffffffffffffffffff161415611410576040517f08c379a000000000000000000000000000000000000000000000000000000000815260040161140790612211565b60405180910390fd5b61141c60008383611500565b806002600082825461142e9190611a92565b92505081905550806000808473ffffffffffffffffffffffffffffffffffffffff1673ffffffffffffffffffffffffffffffffffffffff16815260200190815260200160002060008282546114839190611a92565b925050819055508173ffffffffffffffffffffffffffffffffffffffff16600073ffffffffffffffffffffffffffffffffffffffff167fddf252ad1be2c89b69c2b068fc378daa952ba7f163c4a11628f55a4df523b3ef836040516114e891906116e3565b60405180910390a36114fc60008383611505565b5050565b505050565b505050565b600081519050919050565b600082825260208201905092915050565b60005b83811015611544578082015181840152602081019050611529565b83811115611553576000848401525b50505050565b6000601f19601f8301169050919050565b60006115758261150a565b61157f8185611515565b935061158f818560208601611526565b61159881611559565b840191505092915050565b600060208201905081810360008301526115bd818461156a565b905092915050565b600080fd5b600073ffffffffffffffffffffffffffffffffffffffff82169050919050565b60006115f5826115ca565b9050919050565b611605816115ea565b811461161057600080fd5b50565b600081359050611622816115fc565b92915050565b6000819050919050565b61163b81611628565b811461164657600080fd5b50565b60008135905061165881611632565b92915050565b60008060408385031215611675576116746115c5565b5b600061168385828601611613565b925050602061169485828601611649565b9150509250929050565b60008115159050919050565b6116b38161169e565b82525050565b60006020820190506116ce60008301846116aa565b92915050565b6116dd81611628565b82525050565b60006020820190506116f860008301846116d4565b92915050565b600080600060608486031215611717576117166115c5565b5b600061172586828701611613565b935050602061173686828701611613565b925050604061174786828701611649565b9150509250925092565b600060ff82169050919050565b61176781611751565b82525050565b6000602082019050611782600083018461175e565b92915050565b60006020828403121561179e5761179d6115c5565b5b60006117ac84828501611613565b91505092915050565b7f4e487b7100000000000000000000000000000000000000000000000000000000600052602160045260246000fd5b600281106117f5576117f46117b5565b5b50565b6000819050611806826117e4565b919050565b6000611816826117f8565b9050919050565b6118268161180b565b82525050565b6000602082019050611841600083018461181d565b92915050565b6000819050919050565b600061186c611867611862846115ca565b611847565b6115ca565b9050919050565b600061187e82611851565b9050919050565b600061189082611873565b9050919050565b6118a081611885565b82525050565b60006020820190506118bb6000830184611897565b92915050565b6118ca81611751565b81146118d557600080fd5b50565b6000813590506118e7816118c1565b92915050565b600060208284031215611903576119026115c5565b5b6000611911848285016118d8565b91505092915050565b60008060408385031215611931576119306115c5565b5b600061193f85828601611613565b925050602061195085828601611613565b9150509250929050565b600061196582611873565b9050919050565b6119758161195a565b82525050565b6000602082019050611990600083018461196c565b92915050565b7f4e487b7100000000000000000000000000000000000000000000000000000000600052602260045260246000fd5b600060028204905060018216806119dd57607f821691505b602082108114156119f1576119f0611996565b5b50919050565b7f746137617420666f6c6f75732061736872696600000000000000000000000000600082015250565b6000611a2d601383611515565b9150611a38826119f7565b602082019050919050565b60006020820190508181036000830152611a5c81611a20565b9050919050565b7f4e487b7100000000000000000000000000000000000000000000000000000000600052601160045260246000fd5b6000611a9d82611628565b9150611aa883611628565b9250827fffffffffffffffffffffffffffffffffffffffffffffffffffffffffffffffff03821115611add57611adc611a63565b5b828201905092915050565b7f74696d6520697320656e64200000000000000000000000000000000000000000600082015250565b6000611b1e600c83611515565b9150611b2982611ae8565b602082019050919050565b60006020820190508181036000830152611b4d81611b11565b9050919050565b611b5d816115ea565b82525050565b6000602082019050611b786000830184611b54565b92915050565b611b878161169e565b8114611b9257600080fd5b50565b600081519050611ba481611b7e565b92915050565b600060208284031215611bc057611bbf6115c5565b5b6000611bce84828501611b95565b91505092915050565b7f43726f776473616c653a2043616c6c6572204b5943206973206e6f7420636f6d60008201527f706c65746564207965742e000000000000000000000000000000000000000000602082015250565b6000611c33602b83611515565b9150611c3e82611bd7565b604082019050919050565b60006020820190508181036000830152611c6281611c26565b9050919050565b7f73616c616d000000000000000000000000000000000000000000000000000000600082015250565b6000611c9f600583611515565b9150611caa82611c69565b602082019050919050565b60006020820190508181036000830152611cce81611c92565b9050919050565b6000611ce082611628565b9150611ceb83611628565b9250817fffffffffffffffffffffffffffffffffffffffffffffffffffffffffffffffff0483118215151615611d2457611d23611a63565b5b828202905092915050565b6000604082019050611d446000830185611b54565b611d5160208301846116d4565b9392505050565b7f45524332303a2064656372656173656420616c6c6f77616e63652062656c6f7760008201527f207a65726f000000000000000000000000000000000000000000000000000000602082015250565b6000611db4602583611515565b9150611dbf82611d58565b604082019050919050565b60006020820190508181036000830152611de381611da7565b9050919050565b6000604082019050611dff60008301856116d4565b611e0c60208301846116d4565b9392505050565b7f45524332303a20617070726f76652066726f6d20746865207a65726f2061646460008201527f7265737300000000000000000000000000000000000000000000000000000000602082015250565b6000611e6f602483611515565b9150611e7a82611e13565b604082019050919050565b60006020820190508181036000830152611e9e81611e62565b9050919050565b7f45524332303a20617070726f766520746f20746865207a65726f20616464726560008201527f7373000000000000000000000000000000000000000000000000000000000000602082015250565b6000611f01602283611515565b9150611f0c82611ea5565b604082019050919050565b60006020820190508181036000830152611f3081611ef4565b9050919050565b7f45524332304361707065643a2063617020657863656564656400000000000000600082015250565b6000611f6d601983611515565b9150611f7882611f37565b602082019050919050565b60006020820190508181036000830152611f9c81611f60565b9050919050565b7f45524332303a20696e73756666696369656e7420616c6c6f77616e6365000000600082015250565b6000611fd9601d83611515565b9150611fe482611fa3565b602082019050919050565b6000602082019050818103600083015261200881611fcc565b9050919050565b7f45524332303a207472616e736665722066726f6d20746865207a65726f20616460008201527f6472657373000000000000000000000000000000000000000000000000000000602082015250565b600061206b602583611515565b91506120768261200f565b604082019050919050565b6000602082019050818103600083015261209a8161205e565b9050919050565b7f45524332303a207472616e7366657220746f20746865207a65726f206164647260008201527f6573730000000000000000000000000000000000000000000000000000000000602082015250565b60006120fd602383611515565b9150612108826120a1565b604082019050919050565b6000602082019050818103600083015261212c816120f0565b9050919050565b7f45524332303a207472616e7366657220616d6f756e742065786365656473206260008201527f616c616e63650000000000000000000000000000000000000000000000000000602082015250565b600061218f602683611515565b915061219a82612133565b604082019050919050565b600060208201905081810360008301526121be81612182565b9050919050565b7f45524332303a206d696e7420746f20746865207a65726f206164647265737300600082015250565b60006121fb601f83611515565b9150612206826121c5565b602082019050919050565b6000602082019050818103600083015261222a816121ee565b905091905056fea26469706673582212206104d1b42fda21a299a1a41e7680bd8e704a3725a6830838865dc7fe8772342964736f6c63430008090033",
  "linkReferences": {},
  "deployedLinkReferences": {}
}