{
  "_format": "hh-sol-artifact-1",
  "contractName": "Ico",
  "sourceName": "contracts/Ico.sol",
  "abi": [
    {
      "inputs": [
        {
          "internalType": "contract ERC20",
          "name": "_token",
          "type": "address"
        },
        {
          "internalType": "address payable",
          "name": "_wallet",
          "type": "address"
        },
        {
          "internalType": "uint256",
          "name": "_cap",
          "type": "uint256"
        },
        {
          "internalType": "contract KYC",
          "name": "_kyc",
          "type": "address"
        },
        {
          "internalType": "uint256",
          "name": "_goal",
          "type": "uint256"
        },
        {
          "internalType": "uint256",
          "name": "_openingTime",
          "type": "uint256"
        },
        {
          "internalType": "uint256",
          "name": "_closingTime",
          "type": "uint256"
        }
      ],
      "stateMutability": "nonpayable",
      "type": "constructor"
    },
    {
      "anonymous": false,
      "inputs": [
        {
          "indexed": true,
          "internalType": "address",
          "name": "owner",
          "type": "address"
        },
        {
          "indexed": true,
          "internalType": "address",
          "name": "spender",
          "type": "address"
        },
        {
          "indexed": false,
          "internalType": "uint256",
          "name": "value",
          "type": "uint256"
        }
      ],
      "name": "Approval",
      "type": "event"
    },
    {
      "anonymous": false,
      "inputs": [],
      "name": "Closed",
      "type": "event"
    },
    {
      "anonymous": false,
      "inputs": [],
      "name": "Finalized",
      "type": "event"
    },
    {
      "anonymous": false,
      "inputs": [
        {
          "indexed": false,
          "internalType": "uint256",
          "name": "when",
          "type": "uint256"
        },
        {
          "indexed": false,
          "internalType": "uint256",
          "name": "newRate",
          "type": "uint256"
        }
      ],
      "name": "RateChanged",
      "type": "event"
    },
    {
      "anonymous": false,
      "inputs": [
        {
          "indexed": false,
          "internalType": "uint256",
          "name": "when",
          "type": "uint256"
        },
        {
          "indexed": false,
          "internalType": "address",
          "name": "newRecipient",
          "type": "address"
        }
      ],
      "name": "RecipientChanged",
      "type": "event"
    },
    {
      "anonymous": false,
      "inputs": [
        {
          "indexed": true,
          "internalType": "address",
          "name": "beneficiary",
          "type": "address"
        },
        {
          "indexed": false,
          "internalType": "uint256",
          "name": "weiAmount",
          "type": "uint256"
        }
      ],
      "name": "Refunded",
      "type": "event"
    },
    {
      "anonymous": false,
      "inputs": [],
      "name": "RefundsEnabled",
      "type": "event"
    },
    {
      "anonymous": false,
      "inputs": [
        {
          "indexed": false,
          "internalType": "address",
          "name": "who",
          "type": "address"
        },
        {
          "indexed": false,
          "internalType": "uint256",
          "name": "amount",
          "type": "uint256"
        }
      ],
      "name": "TokensPurchased",
      "type": "event"
    },
    {
      "anonymous": false,
      "inputs": [
        {
          "indexed": true,
          "internalType": "address",
          "name": "from",
          "type": "address"
        },
        {
          "indexed": true,
          "internalType": "address",
          "name": "to",
          "type": "address"
        },
        {
          "indexed": false,
          "internalType": "uint256",
          "name": "value",
          "type": "uint256"
        }
      ],
      "name": "Transfer",
      "type": "event"
    },
    {
      "inputs": [],
      "name": "MaxSupply",
      "outputs": [
        {
          "internalType": "uint256",
          "name": "",
          "type": "uint256"
        }
      ],
      "stateMutability": "view",
      "type": "function"
    },
    {
      "inputs": [],
      "name": "_ERC20token",
      "outputs": [
        {
          "internalType": "contract ERC20",
          "name": "",
          "type": "address"
        }
      ],
      "stateMutability": "view",
      "type": "function"
    },
    {
      "inputs": [],
      "name": "_KYC",
      "outputs": [
        {
          "internalType": "contract KYC",
          "name": "",
          "type": "address"
        }
      ],
      "stateMutability": "view",
      "type": "function"
    },
    {
      "inputs": [],
      "name": "_totalSupply",
      "outputs": [
        {
          "internalType": "uint256",
          "name": "",
          "type": "uint256"
        }
      ],
      "stateMutability": "view",
      "type": "function"
    },
    {
      "inputs": [
        {
          "internalType": "address",
          "name": "owner",
          "type": "address"
        },
        {
          "internalType": "address",
          "name": "spender",
          "type": "address"
        }
      ],
      "name": "allowance",
      "outputs": [
        {
          "internalType": "uint256",
          "name": "",
          "type": "uint256"
        }
      ],
      "stateMutability": "view",
      "type": "function"
    },
    {
      "inputs": [
        {
          "internalType": "address",
          "name": "spender",
          "type": "address"
        },
        {
          "internalType": "uint256",
          "name": "amount",
          "type": "uint256"
        }
      ],
      "name": "approve",
      "outputs": [
        {
          "internalType": "bool",
          "name": "",
          "type": "bool"
        }
      ],
      "stateMutability": "nonpayable",
      "type": "function"
    },
    {
      "inputs": [
        {
          "internalType": "address",
          "name": "account",
          "type": "address"
        }
      ],
      "name": "balanceOf",
      "outputs": [
        {
          "internalType": "uint256",
          "name": "",
          "type": "uint256"
        }
      ],
      "stateMutability": "view",
      "type": "function"
    },
    {
      "inputs": [
        {
          "internalType": "uint256",
          "name": "_weiAmount",
          "type": "uint256"
        }
      ],
      "name": "buytoken",
      "outputs": [],
      "stateMutability": "payable",
      "type": "function"
    },
    {
      "inputs": [],
      "name": "cap",
      "outputs": [
        {
          "internalType": "uint256",
          "name": "",
          "type": "uint256"
        }
      ],
      "stateMutability": "view",
      "type": "function"
    },
    {
      "inputs": [
        {
          "internalType": "address payable",
          "name": "_newRecipient",
          "type": "address"
        }
      ],
      "name": "changeRecipient",
      "outputs": [],
      "stateMutability": "nonpayable",
      "type": "function"
    },
    {
      "inputs": [],
      "name": "closingTime",
      "outputs": [
        {
          "internalType": "uint256",
          "name": "",
          "type": "uint256"
        }
      ],
      "stateMutability": "view",
      "type": "function"
    },
    {
      "inputs": [
        {
          "internalType": "address",
          "name": "_who",
          "type": "address"
        }
      ],
      "name": "contribution",
      "outputs": [
        {
          "internalType": "uint256",
          "name": "",
          "type": "uint256"
        }
      ],
      "stateMutability": "view",
      "type": "function"
    },
    {
      "inputs": [
        {
          "internalType": "address",
          "name": "",
          "type": "address"
        }
      ],
      "name": "contributions",
      "outputs": [
        {
          "internalType": "uint256",
          "name": "",
          "type": "uint256"
        }
      ],
      "stateMutability": "view",
      "type": "function"
    },
    {
      "inputs": [],
      "name": "decimals",
      "outputs": [
        {
          "internalType": "uint8",
          "name": "",
          "type": "uint8"
        }
      ],
      "stateMutability": "view",
      "type": "function"
    },
    {
      "inputs": [
        {
          "internalType": "address",
          "name": "spender",
          "type": "address"
        },
        {
          "internalType": "uint256",
          "name": "subtractedValue",
          "type": "uint256"
        }
      ],
      "name": "decreaseAllowance",
      "outputs": [
        {
          "internalType": "bool",
          "name": "",
          "type": "bool"
        }
      ],
      "stateMutability": "nonpayable",
      "type": "function"
    },
    {
      "inputs": [],
      "name": "finalize",
      "outputs": [],
      "stateMutability": "payable",
      "type": "function"
    },
    {
      "inputs": [],
      "name": "getrate",
      "outputs": [
        {
          "internalType": "uint256",
          "name": "",
          "type": "uint256"
        }
      ],
      "stateMutability": "view",
      "type": "function"
    },
    {
      "inputs": [],
      "name": "goal",
      "outputs": [
        {
          "internalType": "uint256",
          "name": "",
          "type": "uint256"
        }
      ],
      "stateMutability": "view",
      "type": "function"
    },
    {
      "inputs": [],
      "name": "goalReached",
      "outputs": [
        {
          "internalType": "bool",
          "name": "",
          "type": "bool"
        }
      ],
      "stateMutability": "view",
      "type": "function"
    },
    {
      "inputs": [
        {
          "internalType": "address",
          "name": "spender",
          "type": "address"
        },
        {
          "internalType": "uint256",
          "name": "addedValue",
          "type": "uint256"
        }
      ],
      "name": "increaseAllowance",
      "outputs": [
        {
          "internalType": "bool",
          "name": "",
          "type": "bool"
        }
      ],
      "stateMutability": "nonpayable",
      "type": "function"
    },
    {
      "inputs": [],
      "name": "investorHardCap",
      "outputs": [
        {
          "internalType": "uint256",
          "name": "",
          "type": "uint256"
        }
      ],
      "stateMutability": "view",
      "type": "function"
    },
    {
      "inputs": [],
      "name": "investorMinCap",
      "outputs": [
        {
          "internalType": "uint256",
          "name": "",
          "type": "uint256"
        }
      ],
      "stateMutability": "view",
      "type": "function"
    },
    {
      "inputs": [],
      "name": "isFinalized",
      "outputs": [
        {
          "internalType": "bool",
          "name": "",
          "type": "bool"
        }
      ],
      "stateMutability": "view",
      "type": "function"
    },
    {
      "inputs": [],
      "name": "name",
      "outputs": [
        {
          "internalType": "string",
          "name": "",
          "type": "string"
        }
      ],
      "stateMutability": "view",
      "type": "function"
    },
    {
      "inputs": [],
      "name": "openingTime",
      "outputs": [
        {
          "internalType": "uint256",
          "name": "",
          "type": "uint256"
        }
      ],
      "stateMutability": "view",
      "type": "function"
    },
    {
      "inputs": [],
      "name": "rate",
      "outputs": [
        {
          "internalType": "uint256",
          "name": "",
          "type": "uint256"
        }
      ],
      "stateMutability": "view",
      "type": "function"
    },
    {
      "inputs": [
        {
          "internalType": "address",
          "name": "investor",
          "type": "address"
        }
      ],
      "name": "refund",
      "outputs": [],
      "stateMutability": "payable",
      "type": "function"
    },
    {
      "inputs": [
        {
          "internalType": "uint8",
          "name": "_stage",
          "type": "uint8"
        }
      ],
      "name": "setCrowdsaleStage",
      "outputs": [],
      "stateMutability": "nonpayable",
      "type": "function"
    },
    {
      "inputs": [],
      "name": "stage",
      "outputs": [
        {
          "internalType": "enum Ico.CrowdsaleStage",
          "name": "",
          "type": "uint8"
        }
      ],
      "stateMutability": "view",
      "type": "function"
    },
    {
      "inputs": [],
      "name": "state",
      "outputs": [
        {
          "internalType": "enum Ico.State",
          "name": "",
          "type": "uint8"
        }
      ],
      "stateMutability": "view",
      "type": "function"
    },
    {
      "inputs": [],
      "name": "symbol",
      "outputs": [
        {
          "internalType": "string",
          "name": "",
          "type": "string"
        }
      ],
      "stateMutability": "view",
      "type": "function"
    },
    {
      "inputs": [],
      "name": "totalSupply",
      "outputs": [
        {
          "internalType": "uint256",
          "name": "",
          "type": "uint256"
        }
      ],
      "stateMutability": "view",
      "type": "function"
    },
    {
      "inputs": [
        {
          "internalType": "address",
          "name": "to",
          "type": "address"
        },
        {
          "internalType": "uint256",
          "name": "amount",
          "type": "uint256"
        }
      ],
      "name": "transfer",
      "outputs": [
        {
          "internalType": "bool",
          "name": "",
          "type": "bool"
        }
      ],
      "stateMutability": "nonpayable",
      "type": "function"
    },
    {
      "inputs": [
        {
          "internalType": "address",
          "name": "from",
          "type": "address"
        },
        {
          "internalType": "address",
          "name": "to",
          "type": "address"
        },
        {
          "internalType": "uint256",
          "name": "amount",
          "type": "uint256"
        }
      ],
      "name": "transferFrom",
      "outputs": [
        {
          "internalType": "bool",
          "name": "",
          "type": "bool"
        }
      ],
      "stateMutability": "nonpayable",
      "type": "function"
    },
    {
      "inputs": [],
      "name": "wallet",
      "outputs": [
        {
          "internalType": "address",
          "name": "",
          "type": "address"
        }
      ],
      "stateMutability": "view",
      "type": "function"
    }
  ],
  "bytecode": "0x60a06040526000600760146101000a81548160ff021916908360018111156200002d576200002c62000402565b5b02179055506101f460085560026009556101f4600a556000600e60006101000a81548160ff0219169083151502179055506000601260006101000a81548160ff0219169083600281111562000087576200008662000402565b5b02179055503480156200009957600080fd5b5060405162003917380380620039178339818101604052810190620000bf919062000583565b848773ffffffffffffffffffffffffffffffffffffffff166306fdde036040518163ffffffff1660e01b815260040160006040518083038186803b1580156200010757600080fd5b505afa1580156200011c573d6000803e3d6000fd5b505050506040513d6000823e3d601f19601f82011682018060405250810190620001479190620007bf565b8873ffffffffffffffffffffffffffffffffffffffff166395d89b416040518163ffffffff1660e01b815260040160006040518083038186803b1580156200018e57600080fd5b505afa158015620001a3573d6000803e3d6000fd5b505050506040513d6000823e3d601f19601f82011682018060405250810190620001ce9190620007bf565b8160039080519060200190620001e692919062000352565b508060049080519060200190620001ff92919062000352565b5050506000811162000248576040517f08c379a00000000000000000000000000000000000000000000000000000000081526004016200023f9062000871565b60405180910390fd5b80608081815250505086600560006101000a81548173ffffffffffffffffffffffffffffffffffffffff021916908373ffffffffffffffffffffffffffffffffffffffff16021790555083600660006101000a81548173ffffffffffffffffffffffffffffffffffffffff021916908373ffffffffffffffffffffffffffffffffffffffff16021790555082600f8190555085600760006101000a81548173ffffffffffffffffffffffffffffffffffffffff021916908373ffffffffffffffffffffffffffffffffffffffff160217905550428210156200032957600080fd5b818110156200033757600080fd5b816010819055508060118190555050505050505050620008f8565b8280546200036090620008c2565b90600052602060002090601f016020900481019282620003845760008555620003d0565b82601f106200039f57805160ff1916838001178555620003d0565b82800160010185558215620003d0579182015b82811115620003cf578251825591602001919060010190620003b2565b5b509050620003df9190620003e3565b5090565b5b80821115620003fe576000816000905550600101620003e4565b5090565b7f4e487b7100000000000000000000000000000000000000000000000000000000600052602160045260246000fd5b6000604051905090565b600080fd5b600080fd5b600073ffffffffffffffffffffffffffffffffffffffff82169050919050565b6000620004728262000445565b9050919050565b6000620004868262000465565b9050919050565b620004988162000479565b8114620004a457600080fd5b50565b600081519050620004b8816200048d565b92915050565b6000620004cb8262000445565b9050919050565b620004dd81620004be565b8114620004e957600080fd5b50565b600081519050620004fd81620004d2565b92915050565b6000819050919050565b620005188162000503565b81146200052457600080fd5b50565b60008151905062000538816200050d565b92915050565b60006200054b8262000465565b9050919050565b6200055d816200053e565b81146200056957600080fd5b50565b6000815190506200057d8162000552565b92915050565b600080600080600080600060e0888a031215620005a557620005a46200043b565b5b6000620005b58a828b01620004a7565b9750506020620005c88a828b01620004ec565b9650506040620005db8a828b0162000527565b9550506060620005ee8a828b016200056c565b9450506080620006018a828b0162000527565b93505060a0620006148a828b0162000527565b92505060c0620006278a828b0162000527565b91505092959891949750929550565b600080fd5b600080fd5b6000601f19601f8301169050919050565b7f4e487b7100000000000000000000000000000000000000000000000000000000600052604160045260246000fd5b6200068b8262000640565b810181811067ffffffffffffffff82111715620006ad57620006ac62000651565b5b80604052505050565b6000620006c262000431565b9050620006d0828262000680565b919050565b600067ffffffffffffffff821115620006f357620006f262000651565b5b620006fe8262000640565b9050602081019050919050565b60005b838110156200072b5780820151818401526020810190506200070e565b838111156200073b576000848401525b50505050565b6000620007586200075284620006d5565b620006b6565b9050828152602081018484840111156200077757620007766200063b565b5b620007848482856200070b565b509392505050565b600082601f830112620007a457620007a362000636565b5b8151620007b684826020860162000741565b91505092915050565b600060208284031215620007d857620007d76200043b565b5b600082015167ffffffffffffffff811115620007f957620007f862000440565b5b62000807848285016200078c565b91505092915050565b600082825260208201905092915050565b7f45524332304361707065643a2063617020697320300000000000000000000000600082015250565b60006200085960158362000810565b9150620008668262000821565b602082019050919050565b600060208201905081810360008301526200088c816200084a565b9050919050565b7f4e487b7100000000000000000000000000000000000000000000000000000000600052602260045260246000fd5b60006002820490506001821680620008db57607f821691505b60208210811415620008f257620008f162000893565b5b50919050565b608051613003620009146000396000610d0601526130036000f3fe6080604052600436106102045760003560e01c80637d3d652211610118578063c040e6b8116100a0578063dd62ed3e1161006f578063dd62ed3e1461075d578063e2dc43101461079a578063ed5db874146107d7578063fa89401a14610802578063fe60b31e1461081e57610204565b8063c040e6b8146106b3578063c19d93fb146106de578063c3ffc1d114610709578063d1ed83381461073457610204565b8063a457c2d7116100e7578063a457c2d7146105b8578063a9059cbb146105f5578063b25d7f5414610632578063b36c12841461065d578063b7a8807c1461068857610204565b80637d3d65221461050e5780638d4e40831461053957806392c2bcb41461056457806395d89b411461058d57610204565b8063395093511161019b5780634b6753bc1161016a5780634b6753bc146104465780634bb278f314610471578063520d3f0d1461047b578063521eb273146104a657806370a08231146104d157610204565b806339509351146103765780633eaaf86b146103b357806340193883146103de57806342e94c901461040957610204565b806323b872dd116101d757806323b872dd146102b85780632c4e722e146102f5578063313ce56714610320578063355274ea1461034b57610204565b806306fdde0314610209578063095ea7b31461023457806318160ddd1461027157806319bece1b1461029c575b600080fd5b34801561021557600080fd5b5061021e610849565b60405161022b91906120da565b60405180910390f35b34801561024057600080fd5b5061025b60048036038101906102569190612195565b6108db565b60405161026891906121f0565b60405180910390f35b34801561027d57600080fd5b506102866108fe565b604051610293919061221a565b60405180910390f35b6102b660048036038101906102b19190612235565b610908565b005b3480156102c457600080fd5b506102df60048036038101906102da9190612262565b610cc4565b6040516102ec91906121f0565b60405180910390f35b34801561030157600080fd5b5061030a610cf3565b604051610317919061221a565b60405180910390f35b34801561032c57600080fd5b50610335610cf9565b60405161034291906122d1565b60405180910390f35b34801561035757600080fd5b50610360610d02565b60405161036d919061221a565b60405180910390f35b34801561038257600080fd5b5061039d60048036038101906103989190612195565b610d2a565b6040516103aa91906121f0565b60405180910390f35b3480156103bf57600080fd5b506103c8610d61565b6040516103d5919061221a565b60405180910390f35b3480156103ea57600080fd5b506103f3610d67565b604051610400919061221a565b60405180910390f35b34801561041557600080fd5b50610430600480360381019061042b91906122ec565b610d6d565b60405161043d919061221a565b60405180910390f35b34801561045257600080fd5b5061045b610d85565b604051610468919061221a565b60405180910390f35b610479610d8b565b005b34801561048757600080fd5b50610490610df6565b60405161049d919061221a565b60405180910390f35b3480156104b257600080fd5b506104bb610e00565b6040516104c89190612328565b60405180910390f35b3480156104dd57600080fd5b506104f860048036038101906104f391906122ec565b610e26565b604051610505919061221a565b60405180910390f35b34801561051a57600080fd5b50610523610e6e565b60405161053091906121f0565b60405180910390f35b34801561054557600080fd5b5061054e610ed0565b60405161055b91906121f0565b60405180910390f35b34801561057057600080fd5b5061058b60048036038101906105869190612381565b610ee3565b005b34801561059957600080fd5b506105a2610fd0565b6040516105af91906120da565b60405180910390f35b3480156105c457600080fd5b506105df60048036038101906105da9190612195565b611062565b6040516105ec91906121f0565b60405180910390f35b34801561060157600080fd5b5061061c60048036038101906106179190612195565b6110d9565b60405161062991906121f0565b60405180910390f35b34801561063e57600080fd5b506106476110fc565b604051610654919061221a565b60405180910390f35b34801561066957600080fd5b50610672611102565b60405161067f919061221a565b60405180910390f35b34801561069457600080fd5b5061069d611108565b6040516106aa919061221a565b60405180910390f35b3480156106bf57600080fd5b506106c861110e565b6040516106d59190612425565b60405180910390f35b3480156106ea57600080fd5b506106f3611121565b6040516107009190612488565b60405180910390f35b34801561071557600080fd5b5061071e611134565b60405161072b9190612502565b60405180910390f35b34801561074057600080fd5b5061075b60048036038101906107569190612549565b61115a565b005b34801561076957600080fd5b50610784600480360381019061077f9190612576565b6112c5565b604051610791919061221a565b60405180910390f35b3480156107a657600080fd5b506107c160048036038101906107bc91906122ec565b61134c565b6040516107ce919061221a565b60405180910390f35b3480156107e357600080fd5b506107ec611395565b6040516107f9919061221a565b60405180910390f35b61081c600480360381019061081791906122ec565b61139b565b005b34801561082a57600080fd5b5061083361166d565b60405161084091906125d7565b60405180910390f35b60606003805461085890612621565b80601f016020809104026020016040519081016040528092919081815260200182805461088490612621565b80156108d15780601f106108a6576101008083540402835291602001916108d1565b820191906000526020600020905b8154815290600101906020018083116108b457829003601f168201915b5050505050905090565b6000806108e6611693565b90506108f381858561169b565b600191505092915050565b6000600254905090565b600081141561094c576040517f08c379a00000000000000000000000000000000000000000000000000000000081526004016109439061269f565b60405180910390fd5b6104b04261095a91906126ee565b60105410801561096b575042601154115b6109aa576040517f08c379a00000000000000000000000000000000000000000000000000000000081526004016109a190612790565b60405180910390fd5b600660009054906101000a900473ffffffffffffffffffffffffffffffffffffffff1673ffffffffffffffffffffffffffffffffffffffff1663babcc539336040518263ffffffff1660e01b8152600401610a059190612328565b60206040518083038186803b158015610a1d57600080fd5b505afa158015610a31573d6000803e3d6000fd5b505050506040513d601f19601f82011682018060405250810190610a5591906127dc565b610a94576040517f08c379a0000000000000000000000000000000000000000000000000000000008152600401610a8b90612855565b60405180910390fd5b6000600b60003373ffffffffffffffffffffffffffffffffffffffff1673ffffffffffffffffffffffffffffffffffffffff16815260200190815260200160002054905060008282610ae691906126ee565b90506009548110158015610afc5750600a548111155b610b3b576040517f08c379a0000000000000000000000000000000000000000000000000000000008152600401610b32906128c1565b60405180910390fd5b80600b60003373ffffffffffffffffffffffffffffffffffffffff1673ffffffffffffffffffffffffffffffffffffffff16815260200190815260200160002081905550610b8881611866565b610b9e60085484610b9991906128e1565b611866565b610bb53360085485610bb091906128e1565b6118ff565b60085483610bc391906128e1565b600c54610bd091906126ee565b600c8190555060466064600c54610be791906128e1565b610bf1919061296a565b600d819055507f8f28852646c20cc973d3a8218f7eefed58c25c909f78f0265af4818c3d4dc2713382604051610c2892919061299b565b60405180910390a16000600760009054906101000a900473ffffffffffffffffffffffffffffffffffffffff1673ffffffffffffffffffffffffffffffffffffffff1684604051610c78906129f5565b60006040518083038185875af1925050503d8060008114610cb5576040519150601f19603f3d011682016040523d82523d6000602084013e610cba565b606091505b5050905050505050565b600080610ccf611693565b9050610cdc858285611969565b610ce78585856119f5565b60019150509392505050565b60085481565b60006012905090565b60007f0000000000000000000000000000000000000000000000000000000000000000905090565b600080610d35611693565b9050610d56818585610d4785896112c5565b610d5191906126ee565b61169b565b600191505092915050565b600c5481565b600f5481565b600b6020528060005260406000206000915090505481565b60115481565b600e60009054906101000a900460ff1615610da557600080fd5b610dad611c76565b7f6823b073d48d6e3a7d385eeb601452d680e74bb46afe3255a7d778f3a9b1768160405160405180910390a16001600e60006101000a81548160ff021916908315150217905550565b6000600854905090565b600760009054906101000a900473ffffffffffffffffffffffffffffffffffffffff1681565b60008060008373ffffffffffffffffffffffffffffffffffffffff1673ffffffffffffffffffffffffffffffffffffffff168152602001908152602001600020549050919050565b6000610eae6040518060400160405280600281526020017f6869000000000000000000000000000000000000000000000000000000000000815250611c9b565b610ebe610eb96108fe565b611866565b600f54610ec96108fe565b1015905090565b600e60009054906101000a900460ff1681565b600073ffffffffffffffffffffffffffffffffffffffff168173ffffffffffffffffffffffffffffffffffffffff161415610f53576040517f08c379a0000000000000000000000000000000000000000000000000000000008152600401610f4a90612a56565b60405180910390fd5b80600760006101000a81548173ffffffffffffffffffffffffffffffffffffffff021916908373ffffffffffffffffffffffffffffffffffffffff1602179055507ff4d6395ecc9257d188547af9a111842045e42f917941a1087d6fafbaff84cab74282604051610fc5929190612a97565b60405180910390a150565b606060048054610fdf90612621565b80601f016020809104026020016040519081016040528092919081815260200182805461100b90612621565b80156110585780601f1061102d57610100808354040283529160200191611058565b820191906000526020600020905b81548152906001019060200180831161103b57829003601f168201915b5050505050905090565b60008061106d611693565b9050600061107b82866112c5565b9050838110156110c0576040517f08c379a00000000000000000000000000000000000000000000000000000000081526004016110b790612b32565b60405180910390fd5b6110cd828686840361169b565b60019250505092915050565b6000806110e4611693565b90506110f18185856119f5565b600191505092915050565b60095481565b600d5481565b60105481565b600760149054906101000a900460ff1681565b601260009054906101000a900460ff1681565b600560009054906101000a900473ffffffffffffffffffffffffffffffffffffffff1681565b8060ff1660006001811115611172576111716123ae565b5b60ff1614156111ab576000600760146101000a81548160ff021916908360018111156111a1576111a06123ae565b5b02179055506111f8565b8060ff166001808111156111c2576111c16123ae565b5b60ff1614156111f7576001600760146101000a81548160ff021916908360018111156111f1576111f06123ae565b5b02179055505b5b6000600181111561120c5761120b6123ae565b5b600760149054906101000a900460ff16600181111561122e5761122d6123ae565b5b1415611242576101f4600881905550611287565b600180811115611255576112546123ae565b5b600760149054906101000a900460ff166001811115611277576112766123ae565b5b14156112865760fa6008819055505b5b7f4ac9052a820bf4f8c02d7588587cae835573b5b99ea7ad4ca002f17f319f7186426008546040516112ba929190612b52565b60405180910390a150565b6000600160008473ffffffffffffffffffffffffffffffffffffffff1673ffffffffffffffffffffffffffffffffffffffff16815260200190815260200160002060008373ffffffffffffffffffffffffffffffffffffffff1673ffffffffffffffffffffffffffffffffffffffff16815260200190815260200160002054905092915050565b6000600b60008373ffffffffffffffffffffffffffffffffffffffff1673ffffffffffffffffffffffffffffffffffffffff168152602001908152602001600020549050919050565b600a5481565b600160028111156113af576113ae6123ae565b5b601260009054906101000a900460ff1660028111156113d1576113d06123ae565b5b146113db57600080fd5b6114196040518060400160405280600481526020017f646f6e6500000000000000000000000000000000000000000000000000000000815250611c9b565b611461600b60008373ffffffffffffffffffffffffffffffffffffffff1673ffffffffffffffffffffffffffffffffffffffff16815260200190815260200160002054611866565b6000600b60008373ffffffffffffffffffffffffffffffffffffffff1673ffffffffffffffffffffffffffffffffffffffff1681526020019081526020016000205490506000600b60008473ffffffffffffffffffffffffffffffffffffffff1673ffffffffffffffffffffffffffffffffffffffff168152602001908152602001600020819055506115286040518060400160405280600581526020017f646f6e6532000000000000000000000000000000000000000000000000000000815250611c9b565b611570600b60008473ffffffffffffffffffffffffffffffffffffffff1673ffffffffffffffffffffffffffffffffffffffff16815260200190815260200160002054611866565b60008273ffffffffffffffffffffffffffffffffffffffff1682604051611596906129f5565b60006040518083038185875af1925050503d80600081146115d3576040519150601f19603f3d011682016040523d82523d6000602084013e6115d8565b606091505b5050905061161a6040518060400160405280600581526020017f646f6e6533000000000000000000000000000000000000000000000000000000815250611c9b565b8273ffffffffffffffffffffffffffffffffffffffff167fd7dee2702d63ad89917b6a4da9981c90c4d24f8c2bdfd64c604ecae57d8d065183604051611660919061221a565b60405180910390a2505050565b600660009054906101000a900473ffffffffffffffffffffffffffffffffffffffff1681565b600033905090565b600073ffffffffffffffffffffffffffffffffffffffff168373ffffffffffffffffffffffffffffffffffffffff16141561170b576040517f08c379a000000000000000000000000000000000000000000000000000000000815260040161170290612bed565b60405180910390fd5b600073ffffffffffffffffffffffffffffffffffffffff168273ffffffffffffffffffffffffffffffffffffffff16141561177b576040517f08c379a000000000000000000000000000000000000000000000000000000000815260040161177290612c7f565b60405180910390fd5b80600160008573ffffffffffffffffffffffffffffffffffffffff1673ffffffffffffffffffffffffffffffffffffffff16815260200190815260200160002060008473ffffffffffffffffffffffffffffffffffffffff1673ffffffffffffffffffffffffffffffffffffffff168152602001908152602001600020819055508173ffffffffffffffffffffffffffffffffffffffff168373ffffffffffffffffffffffffffffffffffffffff167f8c5be1e5ebec7d5bd14f71427d1e84f3dd0314c0f7b2291e5b200ac8c7c3b92583604051611859919061221a565b60405180910390a3505050565b6118fc8160405160240161187a919061221a565b6040516020818303038152906040527ff82c50f1000000000000000000000000000000000000000000000000000000007bffffffffffffffffffffffffffffffffffffffffffffffffffffffff19166020820180517bffffffffffffffffffffffffffffffffffffffffffffffffffffffff8381831617835250505050611d34565b50565b611907610d02565b816119106108fe565b61191a91906126ee565b111561195b576040517f08c379a000000000000000000000000000000000000000000000000000000000815260040161195290612ceb565b60405180910390fd5b6119658282611d5d565b5050565b600061197584846112c5565b90507fffffffffffffffffffffffffffffffffffffffffffffffffffffffffffffffff81146119ef57818110156119e1576040517f08c379a00000000000000000000000000000000000000000000000000000000081526004016119d890612d57565b60405180910390fd5b6119ee848484840361169b565b5b50505050565b600073ffffffffffffffffffffffffffffffffffffffff168373ffffffffffffffffffffffffffffffffffffffff161415611a65576040517f08c379a0000000000000000000000000000000000000000000000000000000008152600401611a5c90612de9565b60405180910390fd5b600073ffffffffffffffffffffffffffffffffffffffff168273ffffffffffffffffffffffffffffffffffffffff161415611ad5576040517f08c379a0000000000000000000000000000000000000000000000000000000008152600401611acc90612e7b565b60405180910390fd5b611ae0838383611ebd565b60008060008573ffffffffffffffffffffffffffffffffffffffff1673ffffffffffffffffffffffffffffffffffffffff16815260200190815260200160002054905081811015611b66576040517f08c379a0000000000000000000000000000000000000000000000000000000008152600401611b5d90612f0d565b60405180910390fd5b8181036000808673ffffffffffffffffffffffffffffffffffffffff1673ffffffffffffffffffffffffffffffffffffffff16815260200190815260200160002081905550816000808573ffffffffffffffffffffffffffffffffffffffff1673ffffffffffffffffffffffffffffffffffffffff1681526020019081526020016000206000828254611bf991906126ee565b925050819055508273ffffffffffffffffffffffffffffffffffffffff168473ffffffffffffffffffffffffffffffffffffffff167fddf252ad1be2c89b69c2b068fc378daa952ba7f163c4a11628f55a4df523b3ef84604051611c5d919061221a565b60405180910390a3611c70848484611ec2565b50505050565b611c7e610e6e565b15611c9057611c8b611ec7565b611c99565b611c98611fa8565b5b565b611d3181604051602401611caf91906120da565b6040516020818303038152906040527f41304fac000000000000000000000000000000000000000000000000000000007bffffffffffffffffffffffffffffffffffffffffffffffffffffffff19166020820180517bffffffffffffffffffffffffffffffffffffffffffffffffffffffff8381831617835250505050611d34565b50565b60008151905060006a636f6e736f6c652e6c6f679050602083016000808483855afa5050505050565b600073ffffffffffffffffffffffffffffffffffffffff168273ffffffffffffffffffffffffffffffffffffffff161415611dcd576040517f08c379a0000000000000000000000000000000000000000000000000000000008152600401611dc490612f79565b60405180910390fd5b611dd960008383611ebd565b8060026000828254611deb91906126ee565b92505081905550806000808473ffffffffffffffffffffffffffffffffffffffff1673ffffffffffffffffffffffffffffffffffffffff1681526020019081526020016000206000828254611e4091906126ee565b925050819055508173ffffffffffffffffffffffffffffffffffffffff16600073ffffffffffffffffffffffffffffffffffffffff167fddf252ad1be2c89b69c2b068fc378daa952ba7f163c4a11628f55a4df523b3ef83604051611ea5919061221a565b60405180910390a3611eb960008383611ec2565b5050565b505050565b505050565b60006002811115611edb57611eda6123ae565b5b601260009054906101000a900460ff166002811115611efd57611efc6123ae565b5b14611f0757600080fd5b6002601260006101000a81548160ff02191690836002811115611f2d57611f2c6123ae565b5b0217905550611f60600760009054906101000a900473ffffffffffffffffffffffffffffffffffffffff16600c546110d9565b50611f7a33600c54600d54611f759190612f99565b6118ff565b7f1cdde67b72a90f19919ac732a437ac2f7a10fc128d28c2a6e525d89ce5cd9d3a60405160405180910390a1565b60006002811115611fbc57611fbb6123ae565b5b601260009054906101000a900460ff166002811115611fde57611fdd6123ae565b5b14611fe857600080fd5b6001601260006101000a81548160ff0219169083600281111561200e5761200d6123ae565b5b02179055507f599d8e5a83cffb867d051598c4d70e805d59802d8081c1c7d6dffc5b6aca2b8960405160405180910390a1565b600081519050919050565b600082825260208201905092915050565b60005b8381101561207b578082015181840152602081019050612060565b8381111561208a576000848401525b50505050565b6000601f19601f8301169050919050565b60006120ac82612041565b6120b6818561204c565b93506120c681856020860161205d565b6120cf81612090565b840191505092915050565b600060208201905081810360008301526120f481846120a1565b905092915050565b600080fd5b600073ffffffffffffffffffffffffffffffffffffffff82169050919050565b600061212c82612101565b9050919050565b61213c81612121565b811461214757600080fd5b50565b60008135905061215981612133565b92915050565b6000819050919050565b6121728161215f565b811461217d57600080fd5b50565b60008135905061218f81612169565b92915050565b600080604083850312156121ac576121ab6120fc565b5b60006121ba8582860161214a565b92505060206121cb85828601612180565b9150509250929050565b60008115159050919050565b6121ea816121d5565b82525050565b600060208201905061220560008301846121e1565b92915050565b6122148161215f565b82525050565b600060208201905061222f600083018461220b565b92915050565b60006020828403121561224b5761224a6120fc565b5b600061225984828501612180565b91505092915050565b60008060006060848603121561227b5761227a6120fc565b5b60006122898682870161214a565b935050602061229a8682870161214a565b92505060406122ab86828701612180565b9150509250925092565b600060ff82169050919050565b6122cb816122b5565b82525050565b60006020820190506122e660008301846122c2565b92915050565b600060208284031215612302576123016120fc565b5b60006123108482850161214a565b91505092915050565b61232281612121565b82525050565b600060208201905061233d6000830184612319565b92915050565b600061234e82612101565b9050919050565b61235e81612343565b811461236957600080fd5b50565b60008135905061237b81612355565b92915050565b600060208284031215612397576123966120fc565b5b60006123a58482850161236c565b91505092915050565b7f4e487b7100000000000000000000000000000000000000000000000000000000600052602160045260246000fd5b600281106123ee576123ed6123ae565b5b50565b60008190506123ff826123dd565b919050565b600061240f826123f1565b9050919050565b61241f81612404565b82525050565b600060208201905061243a6000830184612416565b92915050565b60038110612451576124506123ae565b5b50565b600081905061246282612440565b919050565b600061247282612454565b9050919050565b61248281612467565b82525050565b600060208201905061249d6000830184612479565b92915050565b6000819050919050565b60006124c86124c36124be84612101565b6124a3565b612101565b9050919050565b60006124da826124ad565b9050919050565b60006124ec826124cf565b9050919050565b6124fc816124e1565b82525050565b600060208201905061251760008301846124f3565b92915050565b612526816122b5565b811461253157600080fd5b50565b6000813590506125438161251d565b92915050565b60006020828403121561255f5761255e6120fc565b5b600061256d84828501612534565b91505092915050565b6000806040838503121561258d5761258c6120fc565b5b600061259b8582860161214a565b92505060206125ac8582860161214a565b9150509250929050565b60006125c1826124cf565b9050919050565b6125d1816125b6565b82525050565b60006020820190506125ec60008301846125c8565b92915050565b7f4e487b7100000000000000000000000000000000000000000000000000000000600052602260045260246000fd5b6000600282049050600182168061263957607f821691505b6020821081141561264d5761264c6125f2565b5b50919050565b7f746137617420666c6f7573206173687269660000000000000000000000000000600082015250565b600061268960128361204c565b915061269482612653565b602082019050919050565b600060208201905081810360008301526126b88161267c565b9050919050565b7f4e487b7100000000000000000000000000000000000000000000000000000000600052601160045260246000fd5b60006126f98261215f565b91506127048361215f565b9250827fffffffffffffffffffffffffffffffffffffffffffffffffffffffffffffffff03821115612739576127386126bf565b5b828201905092915050565b7f6e6f7420737461727420796574206f7220656e64200000000000000000000000600082015250565b600061277a60158361204c565b915061278582612744565b602082019050919050565b600060208201905081810360008301526127a98161276d565b9050919050565b6127b9816121d5565b81146127c457600080fd5b50565b6000815190506127d6816127b0565b92915050565b6000602082840312156127f2576127f16120fc565b5b6000612800848285016127c7565b91505092915050565b7f204b5943206973206e6f7420636f6d706c657465642000000000000000000000600082015250565b600061283f60168361204c565b915061284a82612809565b602082019050919050565b6000602082019050818103600083015261286e81612832565b9050919050565b7f73616c616d000000000000000000000000000000000000000000000000000000600082015250565b60006128ab60058361204c565b91506128b682612875565b602082019050919050565b600060208201905081810360008301526128da8161289e565b9050919050565b60006128ec8261215f565b91506128f78361215f565b9250817fffffffffffffffffffffffffffffffffffffffffffffffffffffffffffffffff04831182151516156129305761292f6126bf565b5b828202905092915050565b7f4e487b7100000000000000000000000000000000000000000000000000000000600052601260045260246000fd5b60006129758261215f565b91506129808361215f565b9250826129905761298f61293b565b5b828204905092915050565b60006040820190506129b06000830185612319565b6129bd602083018461220b565b9392505050565b600081905092915050565b50565b60006129df6000836129c4565b91506129ea826129cf565b600082019050919050565b6000612a00826129d2565b9150819050919050565b7f6164647265737320302e00000000000000000000000000000000000000000000600082015250565b6000612a40600a8361204c565b9150612a4b82612a0a565b602082019050919050565b60006020820190508181036000830152612a6f81612a33565b9050919050565b6000612a81826124cf565b9050919050565b612a9181612a76565b82525050565b6000604082019050612aac600083018561220b565b612ab96020830184612a88565b9392505050565b7f45524332303a2064656372656173656420616c6c6f77616e63652062656c6f7760008201527f207a65726f000000000000000000000000000000000000000000000000000000602082015250565b6000612b1c60258361204c565b9150612b2782612ac0565b604082019050919050565b60006020820190508181036000830152612b4b81612b0f565b9050919050565b6000604082019050612b67600083018561220b565b612b74602083018461220b565b9392505050565b7f45524332303a20617070726f76652066726f6d20746865207a65726f2061646460008201527f7265737300000000000000000000000000000000000000000000000000000000602082015250565b6000612bd760248361204c565b9150612be282612b7b565b604082019050919050565b60006020820190508181036000830152612c0681612bca565b9050919050565b7f45524332303a20617070726f766520746f20746865207a65726f20616464726560008201527f7373000000000000000000000000000000000000000000000000000000000000602082015250565b6000612c6960228361204c565b9150612c7482612c0d565b604082019050919050565b60006020820190508181036000830152612c9881612c5c565b9050919050565b7f45524332304361707065643a2063617020657863656564656400000000000000600082015250565b6000612cd560198361204c565b9150612ce082612c9f565b602082019050919050565b60006020820190508181036000830152612d0481612cc8565b9050919050565b7f45524332303a20696e73756666696369656e7420616c6c6f77616e6365000000600082015250565b6000612d41601d8361204c565b9150612d4c82612d0b565b602082019050919050565b60006020820190508181036000830152612d7081612d34565b9050919050565b7f45524332303a207472616e736665722066726f6d20746865207a65726f20616460008201527f6472657373000000000000000000000000000000000000000000000000000000602082015250565b6000612dd360258361204c565b9150612dde82612d77565b604082019050919050565b60006020820190508181036000830152612e0281612dc6565b9050919050565b7f45524332303a207472616e7366657220746f20746865207a65726f206164647260008201527f6573730000000000000000000000000000000000000000000000000000000000602082015250565b6000612e6560238361204c565b9150612e7082612e09565b604082019050919050565b60006020820190508181036000830152612e9481612e58565b9050919050565b7f45524332303a207472616e7366657220616d6f756e742065786365656473206260008201527f616c616e63650000000000000000000000000000000000000000000000000000602082015250565b6000612ef760268361204c565b9150612f0282612e9b565b604082019050919050565b60006020820190508181036000830152612f2681612eea565b9050919050565b7f45524332303a206d696e7420746f20746865207a65726f206164647265737300600082015250565b6000612f63601f8361204c565b9150612f6e82612f2d565b602082019050919050565b60006020820190508181036000830152612f9281612f56565b9050919050565b6000612fa48261215f565b9150612faf8361215f565b925082821015612fc257612fc16126bf565b5b82820390509291505056fea2646970667358221220b9f7a84c259ed56f707ad13cd20973611c0eb7270b9b2e9ae95a431b8ceb809a64736f6c63430008090033",
  "linkReferences": {},
  "deployedLinkReferences": {}
}